S123E000393404BDE0FE3504F7D000390D76657273696F6E20322E302E302E320D32303196
S123E020342D323032332C206261726520526574726F2036383039205342430D68747470E6
S123E040733A2F2F6769746875622E636F6D2F616B756E642F626172652D726574726F2D30
S123E060363830392D534243001A5010CE7FBD8E7FF24F5FED81ED81ED81ED81ED81ED81FB
S123E080ED81BDE0C88EE00CBDE8FF8EE00034103089200034104F5FB3FFF03406BDEA4744
S123E0A032668EFFF0BDEA10BDE907BDE2DC327E33E4BDE346ECC48300012608C62EF7D09E
S123E0C000CC7FFFEDC420EA8680B7D0038668B7D0008600B7D0018601B7D0028603B7D004
S123E0E0038601B7D00139B6D00584012703F6D000395F5A2707B6D005840127F639B6D0C5
S123E10005842027F939B6D006841027F939302E382E302E30000D7374617274696E672095
S123E1206D6F6E69746F722070726F6365737320494420000D4D6F6E69746F7220666F728B
S123E140203638303920436F6D70757465722076000D636F6D6D616E64206D656E750D727F
S123E160205B666972737420616464725D20286F7074696F6E616C205B6E2072657065611C
S123E180745D2920726561647320746865206164647265737365730D77205B616464725D1C
S123E1A0205B646174615D2C206F7074696F6E616C205B6E207265706561745D20777269DE
S123E1C074657320746F20746865206164647265737365730D65205B7372635D205B6473C9
S123E1E0745D205B6C656E6774685D20286F7074696F6E616C205B70726F74656374696FEE
S123E2006E5D2920636F7069657320746F20666C617368206D656D6F72790D6C206F7220DF
S123E2206C205B6F66667365745D206C6F6164732061205352656320646174610D67205B25
S123E240616464725D2065786563757465732061742074686520616464726573730D732040
S123E2605B70726F636573732049445D2073746F7073207468652070726F636573730D62EE
S123E280205B616464725D207365747320646562756767696E67206D6F6465206120627222
S123E2A065616B706F696E742061742074686520616464726573730D7120717569747320AF
S123E2C0646562756767696E67206D6F64650D682074686973206D656E750D00CC0000FDD1
S123E2E07FBDBDE3111CBF8EE116BDE8FFC6103406BDEAB0C60D3406BDEAD03264398EE100
S123E30034BDE8FF8EE10EBDE8FF8EE151BDE8FF397F7FC07F7FC17F7FE2395FB67FE22730
S123E32024F67FC1F17FC0271634108E7FC2A68535105CC12025015FF77FC1C60120047F2C
S123E3407FE25F1CBF398DD35D27328168272F8172273A8177102700AA81651027018F8135
S123E3606C1027028181671027035B8173102703958162102703F2817110270470398D9B26
S123E3805D2709810D1026052BBDE2FE393440327E327E33E44F5FED42BDE8BBC1202615DE
S123E3A0BDE8BB5D270FAFC4C10D2714BDE8BBAF42C10D270BBDE8B420420D726561640035
S123E3C08EE3BABDE8FFC60DBDE001ECC43406BDEA7B3262C620BDE001E6D43406BDEAB08A
S123E3E03262EC42108300002712830001ED42ECC4C30001EDC4C41F27CC20D832623262BD
S123E4003540393440327E327F327E33E44F5FED43BDE8BBC120262CBDE8BBC10D2725C102
S123E4202026218CE000241CAFC4BDE8BB1E10E7421E10C10D271AC1202609BDE8BBAF43FC
S123E440C10D270DBDE8B42048120D7772697465008EE44ABDE8FFC60DBDE001ECC43406F0
S123E460BDEA7B3262C620BDE001E6423406BDEAB03262A642A7D4EC431083000027128330
S123E4800001ED43ECC4C30001EDC4C41F27C820D43262326132623540390D7772697469B7
S123E4A06E67200020627974652873292066726F6D200020746F20002C20706C65617365EE
S123E4C02077616974202E2E2E000D656570726F6D2077726974696E6720646F6E652C20EE
S123E4E000436865636B53756D31363A20003440BDE8BBC120262FBDE8BB3410C12026246B
S123E500BDE8BB3410C1202619BDE8BB34108E0000C10D2717C1202607BDE8BBC10D270C86
S123E520326232623262BDE8B4205F12341033E48EE49ABDE8FFEC423406BDEA7B32628E7A
S123E540E4A4BDE8FFEC463406BDEA7B32628EE4B3BDE8FFEC443406BDEA7B32628EE4B856
S123E560BDE8FFBDE9198EE4CABDE8FF8EE4E1BDE8FFEC443406E34234064F5F3406BDEA05
S123E5804732663406BDEA7B3262326835C00D73656E64206E6F7720746865205352656300
S123E5A020646174612C204F66667365743D002062797465287329204020616464723A00C0
S123E5C0726563657074696F6E20636F6D706C657465640D0020636865636B73756D20658C
S123E5E072726F7221003440327E327E327F327F33E44F5FED42BDE8BBC10D270BC12026A0
S123E6001ABDE8BBC10D2613AF428EE58EBDE8FFEC423406BDEA7B32622006BDE8B47EE6DE
S123E620A3BDE3215D27FA815326F6BDE3215D27FA8131266E6F418602BDE8DF3404EB415F
S123E640E7413504C003E7C4C60DBDE001E6C43406BDEAB032628EE5AFBDE8FF8604BDE8B2
S123E660DFED44AB41A741EB41E741EC44A342ED443406BDEA7B32628602BDE8DF3404EBF9
S123E68041E7413504AE44E780AF446AC426E98602BDE8DFE841C1FF27068EE5D5BDE8FF3D
S123E6A07EE621C60DBDE0018EE5C0BDE8FF32613261326232623540390D676F2061646461
S123E6C0726573732000BDE8BBC1202607BDE8BBC10D2705BDE8B4201D34108EE6B9BDE8E5
S123E6E0FFECE43406BDEA7B3262CCFFFF83000126FB3510AD84390D73746F702070726FF5
S123E700636573732000BDE8BBC1202607BDE8BBC10D2705BDE8B4201D34108EE6F7BDE875
S123E720FFECE43406BDEAB032623506C12026067F7FF07F7FF1390D736574206272656170
S123E7406B6B706F696E74206164647265737320000D627265616B6B706F696E74206578EB
S123E760697374696E67212000BDE8BBC1202615BDE8BBC10D260E8C000025098C7FFF2202
S123E7800434102005BDE8B42036FC7FBD10830000270E1083000127088EE751BDE8FF200C
S123E7A01F8EE737BDE8FF3506FD7FBD3406BDEA7B3262A69F7FBDB77FBF863FA79F7FBDC5
S123E7C0390D7175697420646562756767696E67206D6F6465000D6E6F7420696E2064655D
S123E7E062756767696E67206D6F646500FC7FBD10830000271F34068EE7C1BDE8FF35060D
S123E800108300012707B67FBFA79F7FBDCC0000FD7FBD20068EE7D6BDE8FF390D73656E16
S123E82064206E6F7720746865204241532066696C650D00454E440D00BDE31B5D102700A5
S123E84073810D1026006D8EE81CBDE8FF8EE834BDE3215D27FA810A27F634121F89BDE0BE
S123E86000BDE000BDE0005D26F73512A18026DD1F1083E8341083000425D539BDE8BBC1BC
S123E880202631BDE3215D271634021F89BDE000BDE000BDE0005D26F73502810D26E4396B
S123E8A00D696E76616C696420636F6D6D616E6421210D008EE8A0BDE8FF398E0000BDE3F1
S123E8C01B5D271A1F8981202714810D2710BDEAF634021F10BDEA63EBE01F0120E03934CE
S123E8E0028E0000BDE3215D27FABDEAF634021F10BDEA63EBE01F016AE426E832613934F2
S123E90010BDEA6C326239B6D0048A01B7D00439B6D00484FEB7D0043934703368ECC4105B
S123E92083000027028D2D10AE44AE46EC423406A680A1A42705A7A4BDE9C23121ECE48320
S123E9400001EDE426EA3262ECC41083000027028D4135F034111A508DB68E955586AAA79D
S123E960848DA48EAAAA8655A7848DA48E95558680A7848E955586AAA7848D8B8EAAAA86C9
S123E98055A7848D8B8E95558620A784BDE9078D31359134111A50F68000BDE9108E95550E
S123E9A086AAA784BDE9078EAAAA8655A784BDE9108E955586A0A784BDE907F780008D0231
S123E9C03591CC0BB883000126FB390D524F4D2076657269666965640D000D436865636B9F
S123E9E053756D31362000207761732063616C63756C6174656420696E7374656164200092
S123EA002C20524F4D206661696C757265210D0010A384272A341034068EE9DABDE8FFBDCA
S123EA20EA7B32628EE9E7BDE8FF3510EC843406BDEA7B32628EEA00BDE8FFC60120078E9A
S123EA40E9CBBDE8FF5F3934503366AE44EC81E3C4EDC4AC4226F635D05FA68027045C20B3
S123EA60F94F395849584958495849393410AE64E6802705BDE00120F7359034403364C621
S123EA8024BDE001E6C43406BDEAD6326234041F89F7D0003504F7D000E6413406BDEAD636
S123EAA0326234041F89F7D0003504F7D00035C034403364C624BDE001E6413406BDEAD6B1
S123EAC0326234041F89F7D0003504F7D00035C0E663BDE00139A663444444448D0B1F8989
S123EAE0A663840F8D031E8939840F810922048B3020028B373981392204840F200A814687
S123EB002204803720028057397D7FF626057D7FF727046E9F7FF634168E7FC2B67FC030E7
S123EB20864C812025014FB17FC1260BA6648A40A7647C7FE22012B77FC0BDE0E74D2707E4
S10FEB40C10D26037C7FE2E78435163B00
S113FFF0D359EB4BEB4BEB09EB4BEB4BEB4BE06986
S503005CA0
